{
  "_format": "hh-sol-artifact-1",
  "contractName": "createcourses",
  "sourceName": "contracts/createcourses.sol",
  "abi": [
    {
      "inputs": [
        {
          "internalType": "uint256",
          "name": "cid",
          "type": "uint256"
        },
        {
          "internalType": "address",
          "name": "wallet",
          "type": "address"
        },
        {
          "internalType": "uint256",
          "name": "price",
          "type": "uint256"
        }
      ],
      "name": "addcourse",
      "outputs": [],
      "stateMutability": "nonpayable",
      "type": "function"
    },
    {
      "inputs": [
        {
          "internalType": "uint256",
          "name": "cid",
          "type": "uint256"
        },
        {
          "internalType": "string",
          "name": "lessonurl",
          "type": "string"
        }
      ],
      "name": "addlesson",
      "outputs": [],
      "stateMutability": "nonpayable",
      "type": "function"
    },
    {
      "inputs": [
        {
          "internalType": "uint256",
          "name": "newprice",
          "type": "uint256"
        },
        {
          "internalType": "uint256",
          "name": "cid",
          "type": "uint256"
        },
        {
          "internalType": "address",
          "name": "wallet",
          "type": "address"
        }
      ],
      "name": "changeprice",
      "outputs": [
        {
          "internalType": "bool",
          "name": "",
          "type": "bool"
        }
      ],
      "stateMutability": "nonpayable",
      "type": "function"
    },
    {
      "inputs": [
        {
          "internalType": "uint256",
          "name": "",
          "type": "uint256"
        }
      ],
      "name": "courseid",
      "outputs": [
        {
          "internalType": "address",
          "name": "wallet",
          "type": "address"
        },
        {
          "internalType": "uint256",
          "name": "price",
          "type": "uint256"
        }
      ],
      "stateMutability": "view",
      "type": "function"
    },
    {
      "inputs": [
        {
          "internalType": "uint256",
          "name": "cid",
          "type": "uint256"
        }
      ],
      "name": "deletecourse",
      "outputs": [],
      "stateMutability": "nonpayable",
      "type": "function"
    }
  ],
  "bytecode": "0x608060405234801561001057600080fd5b5061073d806100206000396000f3fe608060405234801561001057600080fd5b50600436106100675760003560e01c806382ad5a081161005057806382ad5a0814610094578063c44ad0ba146100bd578063f46a05ca1461011857600080fd5b8063355ac5561461006c578063470501a414610081575b600080fd5b61007f61007a3660046103da565b610166565b005b61007f61008f366004610432565b610194565b6100a76100a2366004610485565b6101d8565b6040516100b491906104df565b60405180910390f35b61007f6100cb3660046104ed565b600092835260208390526040909220805473ffffffffffffffffffffffffffffffffffffffff191673ffffffffffffffffffffffffffffffffffffffff9290921691909117815560020155565b610158610126366004610432565b6000602081905290815260409020805460029091015473ffffffffffffffffffffffffffffffffffffffff9091169082565b6040516100b4929190610542565b6000828152602081815260408220600190810180549182018155835291200161018f8282610643565b505050565b6000818152602081905260408120805473ffffffffffffffffffffffffffffffffffffffff19168155906101cb600183018261022d565b6002820160009055505050565b60008281526020819052604081205473ffffffffffffffffffffffffffffffffffffffff808416911603610222575060008281526020819052604090206002018390556001610226565b5060005b9392505050565b508054600082559060005260206000209081019061024b919061024e565b50565b8082111561026b576000610262828261026f565b5060010161024e565b5090565b50805461027b90610573565b6000825580601f1061028b575050565b601f01602090049060005260206000209081019061024b91905b8082111561026b57600081556001016102a5565b805b811461024b57600080fd5b80356102d1816102b9565b92915050565b634e487b7160e01b600052604160045260246000fd5b601f19601f830116810181811067ffffffffffffffff82111715610313576103136102d7565b6040525050565b600061032560405190565b905061033182826102ed565b919050565b600067ffffffffffffffff821115610350576103506102d7565b601f19601f83011660200192915050565b82818337506000910152565b600061038061037b84610336565b61031a565b90508281526020810184848401111561039b5761039b600080fd5b6103a6848285610361565b509392505050565b600082601f8301126103c2576103c2600080fd5b81356103d284826020860161036d565b949350505050565b600080604083850312156103f0576103f0600080fd5b60006103fc85856102c6565b925050602083013567ffffffffffffffff81111561041c5761041c600080fd5b610428858286016103ae565b9150509250929050565b60006020828403121561044757610447600080fd5b60006103d284846102c6565b600073ffffffffffffffffffffffffffffffffffffffff82166102d1565b6102bb81610453565b80356102d181610471565b60008060006060848603121561049d5761049d600080fd5b60006104a986866102c6565b93505060206104ba868287016102c6565b92505060406104cb8682870161047a565b9150509250925092565b8015155b82525050565b602081016102d182846104d5565b60008060006060848603121561050557610505600080fd5b600061051186866102c6565b93505060206105228682870161047a565b92505060406104cb868287016102c6565b6104d981610453565b806104d9565b604081016105508285610533565b610226602083018461053c565b634e487b7160e01b600052602260045260246000fd5b60028104600182168061058757607f821691505b6020821081036105995761059961055d565b50919050565b60006102d16105ab8381565b90565b6105b78361059f565b81546008840282811b60001990911b908116901990911617825550505050565b600061018f8184846105ae565b818110156105ff576105f76000826105d7565b6001016105e4565b5050565b601f82111561018f576000818152602090206020601f8501048101602085101561062a5750805b61063c6020601f8601048301826105e4565b5050505050565b815167ffffffffffffffff81111561065d5761065d6102d7565b6106678254610573565b610672828285610603565b6020601f8311600181146106a6576000841561068e5750858201515b600019600886021c19811660028602178655506106ff565b600085815260208120601f198616915b828110156106d657888501518255602094850194600190920191016106b6565b868310156106f25784890151600019601f89166008021c191682555b6001600288020188555050505b50505050505056fea2646970667358221220a67daa43444d6af01b4044a7355ec16cd6d443a4471b52c5c5135dfabcefcf0264736f6c63430008110033",
  "linkReferences": {},
  "deployedLinkReferences": {}
}