{
  "_format": "hh-sol-artifact-1",
  "contractName": "createuser",
  "sourceName": "contracts/createuser.sol",
  "abi": [
    {
      "inputs": [
        {
          "internalType": "address",
          "name": "wallet",
          "type": "address"
        },
        {
          "internalType": "uint256",
          "name": "courseid",
          "type": "uint256"
        }
      ],
      "name": "coursepurchase",
      "outputs": [],
      "stateMutability": "nonpayable",
      "type": "function"
    },
    {
      "inputs": [
        {
          "internalType": "address",
          "name": "wallet",
          "type": "address"
        }
      ],
      "name": "getcourses",
      "outputs": [
        {
          "internalType": "uint256[]",
          "name": "",
          "type": "uint256[]"
        }
      ],
      "stateMutability": "view",
      "type": "function"
    },
    {
      "inputs": [
        {
          "internalType": "address",
          "name": "wallet",
          "type": "address"
        }
      ],
      "name": "removeuser",
      "outputs": [],
      "stateMutability": "nonpayable",
      "type": "function"
    },
    {
      "inputs": [
        {
          "internalType": "address",
          "name": "wallet",
          "type": "address"
        },
        {
          "internalType": "string",
          "name": "firstname",
          "type": "string"
        },
        {
          "internalType": "string",
          "name": "lastname",
          "type": "string"
        },
        {
          "internalType": "string",
          "name": "email",
          "type": "string"
        },
        {
          "internalType": "uint256",
          "name": "usertype",
          "type": "uint256"
        }
      ],
      "name": "saveuser",
      "outputs": [],
      "stateMutability": "nonpayable",
      "type": "function"
    },
    {
      "inputs": [
        {
          "internalType": "address",
          "name": "",
          "type": "address"
        }
      ],
      "name": "wallets",
      "outputs": [
        {
          "internalType": "string",
          "name": "firstname",
          "type": "string"
        },
        {
          "internalType": "string",
          "name": "lastname",
          "type": "string"
        },
        {
          "internalType": "string",
          "name": "email",
          "type": "string"
        },
        {
          "internalType": "uint256",
          "name": "usertype",
          "type": "uint256"
        },
        {
          "internalType": "uint256",
          "name": "noofcourses",
          "type": "uint256"
        }
      ],
      "stateMutability": "view",
      "type": "function"
    }
  ],
  "bytecode": "0x608060405234801561001057600080fd5b50610ab0806100206000396000f3fe608060405234801561001057600080fd5b50600436106100675760003560e01c806362135422116100505780636213542214610094578063736952d5146100a757806389b08f11146100d057600080fd5b8063469298851461006c57806359780b9d14610081575b600080fd5b61007f61007a366004610651565b6100f4565b005b61007f61008f36600461071a565b610192565b61007f6100a236600461073b565b6101f6565b6100ba6100b536600461071a565b610268565b6040516100c791906107ba565b60405180910390f35b6100e36100de36600461071a565b6102d5565b6040516100c7959493929190610828565b6001600160a01b03851660009081526020819052604090206101168582610970565b506001600160a01b038516600090815260208190526040902060010161013c8482610970565b506001600160a01b03851660009081526020819052604090206002016101628382610970565b506001600160a01b0390941660009081526020819052604081206003810195909555600590940193909355505050565b6001600160a01b0381166000908152602081905260408120906101b5828261049b565b6101c360018301600061049b565b6101d160028301600061049b565b60038201600090556004820160006101e991906104d8565b6005820160009055505050565b6001600160a01b0382166000908152602081905260409020600581015460049091018054839290811061022b5761022b610a34565b60009182526020808320909101929092556001600160a01b0384168152908190526040812060050180549161025f83610a60565b91905055505050565b6001600160a01b038116600090815260208181526040918290206004018054835181840281018401909452808452606093928301828280156102c957602002820191906000526020600020905b8154815260200190600101908083116102b5575b50505050509050919050565b6000602081905290815260409020805481906102f09061089b565b80601f016020809104026020016040519081016040528092919081815260200182805461031c9061089b565b80156103695780601f1061033e57610100808354040283529160200191610369565b820191906000526020600020905b81548152906001019060200180831161034c57829003601f168201915b50505050509080600101805461037e9061089b565b80601f01602080910402602001604051908101604052809291908181526020018280546103aa9061089b565b80156103f75780601f106103cc576101008083540402835291602001916103f7565b820191906000526020600020905b8154815290600101906020018083116103da57829003601f168201915b50505050509080600201805461040c9061089b565b80601f01602080910402602001604051908101604052809291908181526020018280546104389061089b565b80156104855780601f1061045a57610100808354040283529160200191610485565b820191906000526020600020905b81548152906001019060200180831161046857829003601f168201915b5050505050908060030154908060050154905085565b5080546104a79061089b565b6000825580601f106104b7575050565b601f0160209004906000526020600020908101906104d591906104f2565b50565b50805460008255906000526020600020908101906104d591905b5b8082111561050757600081556001016104f3565b5090565b60006001600160a01b0382165b92915050565b6105278161050b565b81146104d557600080fd5b80356105188161051e565b634e487b7160e01b600052604160045260246000fd5b601f19601f830116810181811067ffffffffffffffff821117156105795761057961053d565b6040525050565b600061058b60405190565b90506105978282610553565b919050565b600067ffffffffffffffff8211156105b6576105b661053d565b601f19601f83011660200192915050565b82818337506000910152565b60006105e66105e18461059c565b610580565b90508281526020810184848401111561060157610601600080fd5b61060c8482856105c7565b509392505050565b600082601f83011261062857610628600080fd5b81356106388482602086016105d3565b949350505050565b80610527565b803561051881610640565b600080600080600060a0868803121561066c5761066c600080fd5b60006106788888610532565b955050602086013567ffffffffffffffff81111561069857610698600080fd5b6106a488828901610614565b945050604086013567ffffffffffffffff8111156106c4576106c4600080fd5b6106d088828901610614565b935050606086013567ffffffffffffffff8111156106f0576106f0600080fd5b6106fc88828901610614565b925050608061070d88828901610646565b9150509295509295909350565b60006020828403121561072f5761072f600080fd5b60006106388484610532565b6000806040838503121561075157610751600080fd5b600061075d8585610532565b925050602061076e85828601610646565b9150509250929050565b6000610782825190565b80845260209384019383018060005b838110156107af578151875260209687019690910190600101610791565b509495945050505050565b602080825281016107cb8184610778565b9392505050565b60005b838110156107ed5781810151838201526020016107d5565b50506000910152565b6000610800825190565b8084526020840193506108178185602086016107d2565b601f01601f19169290920192915050565b60a0808252810161083981886107f6565b9050818103602083015261084d81876107f6565b9050818103604083015261086181866107f6565b905061086f60608301859052565b61087b60808301849052565b9695505050505050565b634e487b7160e01b600052602260045260246000fd5b6002810460018216806108af57607f821691505b6020821081036108c1576108c1610885565b50919050565b60006105186108d38381565b90565b6108df836108c7565b81546008840282811b60001990911b908116901990911617825550505050565b600061090c8184846108d6565b505050565b8181101561092c576109246000826108ff565b600101610911565b5050565b601f82111561090c576000818152602090206020601f850104810160208510156109575750805b6109696020601f860104830182610911565b5050505050565b815167ffffffffffffffff81111561098a5761098a61053d565b610994825461089b565b61099f828285610930565b6020601f8311600181146109d357600084156109bb5750858201515b600019600886021c1981166002860217865550610a2c565b600085815260208120601f198616915b82811015610a0357888501518255602094850194600190920191016109e3565b86831015610a1f5784890151600019601f89166008021c191682555b6001600288020188555050505b505050505050565b634e487b7160e01b600052603260045260246000fd5b634e487b7160e01b600052601160045260246000fd5b60006000198203610a7357610a73610a4a565b506001019056fea2646970667358221220674533d88118451731811974855cb4b9b990317f0c7fa0ddb18410fbc2e5b57f64736f6c63430008110033",
  "linkReferences": {},
  "deployedLinkReferences": {}
}